{
  "address": "0x89e20ef8ccdf9FC8D15Fb7E69fD9E0458C6ec00c",
  "abi": [
    {
      "inputs": [
        {
          "internalType": "address",
          "name": "_endpoint",
          "type": "address"
        },
        {
          "internalType": "address",
          "name": "_stargate",
          "type": "address"
        }
      ],
      "stateMutability": "nonpayable",
      "type": "constructor"
    },
    {
      "anonymous": false,
      "inputs": [
        {
          "indexed": false,
          "internalType": "address",
          "name": "token",
          "type": "address"
        }
      ],
      "name": "ReceivedOnDestination",
      "type": "event"
    },
    {
      "anonymous": false,
      "inputs": [
        {
          "indexed": false,
          "internalType": "address",
          "name": "_tokenReceiver",
          "type": "address"
        },
        {
          "indexed": false,
          "internalType": "address",
          "name": "_oftOnDestination",
          "type": "address"
        },
        {
          "indexed": false,
          "internalType": "address",
          "name": "_tokenOut",
          "type": "address"
        },
        {
          "indexed": false,
          "internalType": "uint256",
          "name": "_amountOutMinDest",
          "type": "uint256"
        }
      ],
      "name": "SwapParam",
      "type": "event"
    },
    {
      "stateMutability": "payable",
      "type": "fallback"
    },
    {
      "inputs": [],
      "name": "endpoint",
      "outputs": [
        {
          "internalType": "address",
          "name": "",
          "type": "address"
        }
      ],
      "stateMutability": "view",
      "type": "function"
    },
    {
      "inputs": [
        {
          "internalType": "address",
          "name": "_from",
          "type": "address"
        },
        {
          "internalType": "bytes32",
          "name": "_guid",
          "type": "bytes32"
        },
        {
          "internalType": "bytes",
          "name": "_message",
          "type": "bytes"
        },
        {
          "internalType": "address",
          "name": "_executor",
          "type": "address"
        },
        {
          "internalType": "bytes",
          "name": "_extraData",
          "type": "bytes"
        }
      ],
      "name": "lzCompose",
      "outputs": [],
      "stateMutability": "payable",
      "type": "function"
    },
    {
      "inputs": [],
      "name": "stargate",
      "outputs": [
        {
          "internalType": "address",
          "name": "",
          "type": "address"
        }
      ],
      "stateMutability": "view",
      "type": "function"
    },
    {
      "stateMutability": "payable",
      "type": "receive"
    }
  ],
  "transactionHash": "0xd5692b9bdd7732a2b2a803c7fb5dffef904bb399d7ea26722bf8040a1d5810b0",
  "args": [
    "0x6EDCE65403992e310A62460808c4b910D972f10f",
    "0x1E8A86EcC9dc41106d3834c6F1033D86939B1e0D"
  ],
  "numDeployments": 3,
  "solcInputHash": "9b48842e4dbb24896794335b60d349ef",
  "bytecode": "0x60c060405234801561001057600080fd5b506040516105e33803806105e383398101604081905261002f91610062565b6001600160a01b039182166080521660a052610095565b80516001600160a01b038116811461005d57600080fd5b919050565b6000806040838503121561007557600080fd5b61007e83610046565b915061008c60208401610046565b90509250929050565b60805160a05161051e6100c56000396000818160a0015260d20152600081816050015261014d015261051e6000f3fe6080604052600436106100355760003560e01c80635e280f111461003e5780636c099dee1461008e578063d0a10260146100c257005b3661003c57005b005b34801561004a57600080fd5b506100727f000000000000000000000000000000000000000000000000000000000000000081565b6040516001600160a01b03909116815260200160405180910390f35b34801561009a57600080fd5b506100727f000000000000000000000000000000000000000000000000000000000000000081565b61003c6100d0366004610396565b7f00000000000000000000000000000000000000000000000000000000000000006001600160a01b0316876001600160a01b0316146101425760405162461bcd60e51b815260206004820152600960248201526821737461726761746560b81b60448201526064015b60405180910390fd5b336001600160a01b037f000000000000000000000000000000000000000000000000000000000000000016146101a65760405162461bcd60e51b815260206004820152600960248201526808595b991c1bda5b9d60ba1b6044820152606401610139565b60006101b286866102c8565b905060006101c087876102ea565b9050600080600080848060200190518101906101dc9190610437565b604080516002808252606082018352959950939750919550935060009290602083019080368337019050509050838160008151811061021d5761021d61048a565b60200260200101906001600160a01b031690816001600160a01b03168152505082816001815181106102515761025161048a565b6001600160a01b0392831660209182029290920181019190915260408051888416815287841692810192909252918516818301526060810184905290517f2e881d9184e7e461ce04d6bcd75b22cde181558687ca9fcc5cd64c062effd94c9181900360800190a15050505050505050505050505050565b60006102d8602c600c84866104a0565b6102e1916104ca565b90505b92915050565b60606102f982604c81866104a0565b8080601f016020809104026020016040519081016040528093929190818152602001838380828437600092019190915250929695505050505050565b6001600160a01b038116811461034a57600080fd5b50565b60008083601f84011261035f57600080fd5b50813567ffffffffffffffff81111561037757600080fd5b60208301915083602082850101111561038f57600080fd5b9250929050565b600080600080600080600060a0888a0312156103b157600080fd5b87356103bc81610335565b965060208801359550604088013567ffffffffffffffff808211156103e057600080fd5b6103ec8b838c0161034d565b909750955060608a0135915061040182610335565b9093506080890135908082111561041757600080fd5b506104248a828b0161034d565b989b979a50959850939692959293505050565b6000806000806080858703121561044d57600080fd5b845161045881610335565b602086015190945061046981610335565b604086015190935061047a81610335565b6060959095015193969295505050565b634e487b7160e01b600052603260045260246000fd5b600080858511156104b057600080fd5b838611156104bd57600080fd5b5050820193919092039150565b803560208310156102e457600019602084900360031b1b169291505056fea2646970667358221220b163811f965342401863dcc0999375523dfb2d837f3781b17efa3d84baf12fd164736f6c63430008160033",
  "devdoc": {
    "kind": "dev",
    "methods": {
      "lzCompose(address,bytes32,bytes,address,bytes)": {
        "details": "To ensure non-reentrancy, implementers of this interface MUST assert msg.sender is the corresponding EndpointV2 contract (i.e., onlyEndpointV2).",
        "params": {
          "_executor": "The address of the executor for the composed message.",
          "_extraData": "Additional arbitrary data in bytes passed by the entity who executes the lzCompose.",
          "_from": "The address initiating the composition, typically the OApp where the lzReceive was called.",
          "_guid": "The unique identifier for the corresponding LayerZero src/dst tx.",
          "_message": "The composed message payload in bytes. NOT necessarily the same payload passed via lzReceive."
        }
      }
    },
    "version": 1
  },
  "userdoc": {
    "kind": "user",
    "methods": {
      "lzCompose(address,bytes32,bytes,address,bytes)": {
        "notice": "Composes a LayerZero message from an OApp."
      }
    },
    "version": 1
  },
  "storageLayout": {
    "storage": [],
    "types": null
  }
}