{
  "address": "0x7D8524950828398dD1d607FC764E79a89728112c",
  "abi": [
    {
      "inputs": [
        {
          "internalType": "address",
          "name": "_endpoint",
          "type": "address"
        },
        {
          "internalType": "address",
          "name": "_delegate",
          "type": "address"
        }
      ],
      "stateMutability": "nonpayable",
      "type": "constructor"
    },
    {
      "inputs": [],
      "name": "InvalidDelegate",
      "type": "error"
    },
    {
      "inputs": [],
      "name": "InvalidEndpointCall",
      "type": "error"
    },
    {
      "inputs": [
        {
          "internalType": "uint16",
          "name": "optionType",
          "type": "uint16"
        }
      ],
      "name": "InvalidOptionType",
      "type": "error"
    },
    {
      "inputs": [
        {
          "internalType": "uint32",
          "name": "eid",
          "type": "uint32"
        }
      ],
      "name": "NoPeer",
      "type": "error"
    },
    {
      "inputs": [
        {
          "internalType": "address",
          "name": "addr",
          "type": "address"
        }
      ],
      "name": "OnlyEndpoint",
      "type": "error"
    },
    {
      "inputs": [
        {
          "internalType": "uint32",
          "name": "eid",
          "type": "uint32"
        },
        {
          "internalType": "bytes32",
          "name": "sender",
          "type": "bytes32"
        }
      ],
      "name": "OnlyPeer",
      "type": "error"
    },
    {
      "inputs": [
        {
          "internalType": "address",
          "name": "owner",
          "type": "address"
        }
      ],
      "name": "OwnableInvalidOwner",
      "type": "error"
    },
    {
      "inputs": [
        {
          "internalType": "address",
          "name": "account",
          "type": "address"
        }
      ],
      "name": "OwnableUnauthorizedAccount",
      "type": "error"
    },
    {
      "inputs": [
        {
          "internalType": "uint8",
          "name": "bits",
          "type": "uint8"
        },
        {
          "internalType": "uint256",
          "name": "value",
          "type": "uint256"
        }
      ],
      "name": "SafeCastOverflowedUintDowncast",
      "type": "error"
    },
    {
      "anonymous": false,
      "inputs": [
        {
          "indexed": true,
          "internalType": "address",
          "name": "_from",
          "type": "address"
        },
        {
          "indexed": true,
          "internalType": "bytes32",
          "name": "_guid",
          "type": "bytes32"
        },
        {
          "indexed": false,
          "internalType": "bytes",
          "name": "_message",
          "type": "bytes"
        },
        {
          "indexed": false,
          "internalType": "address",
          "name": "_executor",
          "type": "address"
        },
        {
          "indexed": false,
          "internalType": "bytes",
          "name": "_extraData",
          "type": "bytes"
        }
      ],
      "name": "ComposeAcknowledged",
      "type": "event"
    },
    {
      "anonymous": false,
      "inputs": [
        {
          "indexed": false,
          "internalType": "string",
          "name": "data",
          "type": "string"
        },
        {
          "indexed": false,
          "internalType": "bytes",
          "name": "payload",
          "type": "bytes"
        }
      ],
      "name": "MessageReceived",
      "type": "event"
    },
    {
      "anonymous": false,
      "inputs": [
        {
          "indexed": true,
          "internalType": "address",
          "name": "previousOwner",
          "type": "address"
        },
        {
          "indexed": true,
          "internalType": "address",
          "name": "newOwner",
          "type": "address"
        }
      ],
      "name": "OwnershipTransferred",
      "type": "event"
    },
    {
      "anonymous": false,
      "inputs": [
        {
          "indexed": false,
          "internalType": "uint32",
          "name": "eid",
          "type": "uint32"
        },
        {
          "indexed": false,
          "internalType": "bytes32",
          "name": "peer",
          "type": "bytes32"
        }
      ],
      "name": "PeerSet",
      "type": "event"
    },
    {
      "stateMutability": "payable",
      "type": "fallback"
    },
    {
      "inputs": [],
      "name": "acknowledgedCount",
      "outputs": [
        {
          "internalType": "uint256",
          "name": "",
          "type": "uint256"
        }
      ],
      "stateMutability": "view",
      "type": "function"
    },
    {
      "inputs": [
        {
          "components": [
            {
              "internalType": "uint32",
              "name": "srcEid",
              "type": "uint32"
            },
            {
              "internalType": "bytes32",
              "name": "sender",
              "type": "bytes32"
            },
            {
              "internalType": "uint64",
              "name": "nonce",
              "type": "uint64"
            }
          ],
          "internalType": "struct Origin",
          "name": "origin",
          "type": "tuple"
        }
      ],
      "name": "allowInitializePath",
      "outputs": [
        {
          "internalType": "bool",
          "name": "",
          "type": "bool"
        }
      ],
      "stateMutability": "view",
      "type": "function"
    },
    {
      "inputs": [],
      "name": "data",
      "outputs": [
        {
          "internalType": "string",
          "name": "",
          "type": "string"
        }
      ],
      "stateMutability": "view",
      "type": "function"
    },
    {
      "inputs": [],
      "name": "endpoint",
      "outputs": [
        {
          "internalType": "contract ILayerZeroEndpointV2",
          "name": "",
          "type": "address"
        }
      ],
      "stateMutability": "view",
      "type": "function"
    },
    {
      "inputs": [
        {
          "components": [
            {
              "internalType": "uint32",
              "name": "srcEid",
              "type": "uint32"
            },
            {
              "internalType": "bytes32",
              "name": "sender",
              "type": "bytes32"
            },
            {
              "internalType": "uint64",
              "name": "nonce",
              "type": "uint64"
            }
          ],
          "internalType": "struct Origin",
          "name": "",
          "type": "tuple"
        },
        {
          "internalType": "bytes",
          "name": "",
          "type": "bytes"
        },
        {
          "internalType": "address",
          "name": "_sender",
          "type": "address"
        }
      ],
      "name": "isComposeMsgSender",
      "outputs": [
        {
          "internalType": "bool",
          "name": "",
          "type": "bool"
        }
      ],
      "stateMutability": "view",
      "type": "function"
    },
    {
      "inputs": [
        {
          "components": [
            {
              "internalType": "uint32",
              "name": "srcEid",
              "type": "uint32"
            },
            {
              "internalType": "bytes32",
              "name": "sender",
              "type": "bytes32"
            },
            {
              "internalType": "uint64",
              "name": "nonce",
              "type": "uint64"
            }
          ],
          "internalType": "struct Origin",
          "name": "_origin",
          "type": "tuple"
        },
        {
          "internalType": "bytes32",
          "name": "_guid",
          "type": "bytes32"
        },
        {
          "internalType": "bytes",
          "name": "_message",
          "type": "bytes"
        },
        {
          "internalType": "address",
          "name": "_executor",
          "type": "address"
        },
        {
          "internalType": "bytes",
          "name": "_extraData",
          "type": "bytes"
        }
      ],
      "name": "lzReceive",
      "outputs": [],
      "stateMutability": "payable",
      "type": "function"
    },
    {
      "inputs": [
        {
          "internalType": "uint32",
          "name": "_srcEid",
          "type": "uint32"
        },
        {
          "internalType": "bytes32",
          "name": "_sender",
          "type": "bytes32"
        }
      ],
      "name": "nextNonce",
      "outputs": [
        {
          "internalType": "uint64",
          "name": "",
          "type": "uint64"
        }
      ],
      "stateMutability": "view",
      "type": "function"
    },
    {
      "inputs": [],
      "name": "oAppVersion",
      "outputs": [
        {
          "internalType": "uint64",
          "name": "senderVersion",
          "type": "uint64"
        },
        {
          "internalType": "uint64",
          "name": "receiverVersion",
          "type": "uint64"
        }
      ],
      "stateMutability": "view",
      "type": "function"
    },
    {
      "inputs": [],
      "name": "owner",
      "outputs": [
        {
          "internalType": "address",
          "name": "",
          "type": "address"
        }
      ],
      "stateMutability": "view",
      "type": "function"
    },
    {
      "inputs": [
        {
          "internalType": "uint32",
          "name": "eid",
          "type": "uint32"
        }
      ],
      "name": "peers",
      "outputs": [
        {
          "internalType": "bytes32",
          "name": "peer",
          "type": "bytes32"
        }
      ],
      "stateMutability": "view",
      "type": "function"
    },
    {
      "inputs": [
        {
          "internalType": "address",
          "name": "_stargate",
          "type": "address"
        },
        {
          "internalType": "uint32",
          "name": "_dstEid",
          "type": "uint32"
        },
        {
          "internalType": "uint256",
          "name": "_amount",
          "type": "uint256"
        },
        {
          "internalType": "address",
          "name": "_composer",
          "type": "address"
        },
        {
          "internalType": "bytes",
          "name": "_composeMsg",
          "type": "bytes"
        }
      ],
      "name": "prepareTakeTaxiAndAMMSwap",
      "outputs": [
        {
          "internalType": "uint256",
          "name": "valueToSend",
          "type": "uint256"
        },
        {
          "components": [
            {
              "internalType": "uint32",
              "name": "dstEid",
              "type": "uint32"
            },
            {
              "internalType": "bytes32",
              "name": "to",
              "type": "bytes32"
            },
            {
              "internalType": "uint256",
              "name": "amountLD",
              "type": "uint256"
            },
            {
              "internalType": "uint256",
              "name": "minAmountLD",
              "type": "uint256"
            },
            {
              "internalType": "bytes",
              "name": "extraOptions",
              "type": "bytes"
            },
            {
              "internalType": "bytes",
              "name": "composeMsg",
              "type": "bytes"
            },
            {
              "internalType": "bytes",
              "name": "oftCmd",
              "type": "bytes"
            }
          ],
          "internalType": "struct SendParam",
          "name": "sendParam",
          "type": "tuple"
        },
        {
          "components": [
            {
              "internalType": "uint256",
              "name": "nativeFee",
              "type": "uint256"
            },
            {
              "internalType": "uint256",
              "name": "lzTokenFee",
              "type": "uint256"
            }
          ],
          "internalType": "struct MessagingFee",
          "name": "messagingFee",
          "type": "tuple"
        }
      ],
      "stateMutability": "view",
      "type": "function"
    },
    {
      "inputs": [],
      "name": "renounceOwnership",
      "outputs": [],
      "stateMutability": "nonpayable",
      "type": "function"
    },
    {
      "inputs": [
        {
          "internalType": "address",
          "name": "_delegate",
          "type": "address"
        }
      ],
      "name": "setDelegate",
      "outputs": [],
      "stateMutability": "nonpayable",
      "type": "function"
    },
    {
      "inputs": [
        {
          "internalType": "uint32",
          "name": "_eid",
          "type": "uint32"
        },
        {
          "internalType": "bytes32",
          "name": "_peer",
          "type": "bytes32"
        }
      ],
      "name": "setPeer",
      "outputs": [],
      "stateMutability": "nonpayable",
      "type": "function"
    },
    {
      "inputs": [
        {
          "internalType": "address",
          "name": "newOwner",
          "type": "address"
        }
      ],
      "name": "transferOwnership",
      "outputs": [],
      "stateMutability": "nonpayable",
      "type": "function"
    },
    {
      "stateMutability": "payable",
      "type": "receive"
    }
  ],
  "transactionHash": "0xf0770da47defb2df8c99c077e8b66f39c00aa1f2a0c72be5c8122bd402a0dba8",
  "args": [
    "0x6EDCE65403992e310A62460808c4b910D972f10f",
    "0x436f795B64E23E6cE7792af4923A68AFD3967952"
  ],
  "numDeployments": 1,
  "solcInputHash": "39095c7dd8d75de3952fa641a81ebce7",
  "bytecode": "0x60e0604052601560a09081527f4e6f7468696e67207265636569766564207965742e000000000000000000000060c0526004906200003e90826200023d565b503480156200004c57600080fd5b5060405162001a9538038062001a958339810160408190526200006f9162000326565b8181806001600160a01b038116620000a157604051631e4fbdf760e01b81526000600482015260240160405180910390fd5b620000ac8162000146565b506001600160a01b038083166080528116620000db57604051632d618d8160e21b815260040160405180910390fd5b60805160405163ca5eb5e160e01b81526001600160a01b0383811660048301529091169063ca5eb5e190602401600060405180830381600087803b1580156200012357600080fd5b505af115801562000138573d6000803e3d6000fd5b50505050505050506200035e565b600080546001600160a01b038381166001600160a01b0319831681178455604051919092169283917f8be0079c531659141344cd1fd0a4f28419497f9722a3daafe3b4186f6b6457e09190a35050565b634e487b7160e01b600052604160045260246000fd5b600181811c90821680620001c157607f821691505b602082108103620001e257634e487b7160e01b600052602260045260246000fd5b50919050565b601f82111562000238576000816000526020600020601f850160051c81016020861015620002135750805b601f850160051c820191505b8181101562000234578281556001016200021f565b5050505b505050565b81516001600160401b0381111562000259576200025962000196565b62000271816200026a8454620001ac565b84620001e8565b602080601f831160018114620002a95760008415620002905750858301515b600019600386901b1c1916600185901b17855562000234565b600085815260208120601f198616915b82811015620002da57888601518255948401946001909101908401620002b9565b5085821015620002f95787850151600019600388901b60f8161c191681555b5050505050600190811b01905550565b80516001600160a01b03811681146200032157600080fd5b919050565b600080604083850312156200033a57600080fd5b620003458362000309565b9150620003556020840162000309565b90509250929050565b60805161170d62000388600039600081816101550152818161033d0152610518015261170d6000f3fe6080604052600436106100e05760003560e01c80637d25a05e11610084578063ca5eb5e111610056578063ca5eb5e1146102ac578063f2fde38b146102cc578063ff7bd03d146102ec578063ffe990d31461030c57005b80637d25a05e146101ea57806382413eac146102225780638da5cb5b14610261578063bb0b6a531461027f57005b80635e280f11116100bd5780635e280f11146101435780636a54d8631461018f578063715018a6146101b357806373d4a13a146101c857005b806313137d65146100e957806317442b70146100fc5780633400288b1461012357005b366100e757005b005b6100e76100f7366004610d6a565b61033b565b34801561010857600080fd5b50604080516000815260026020820152015b60405180910390f35b34801561012f57600080fd5b506100e761013e366004610e22565b6103fb565b34801561014f57600080fd5b506101777f000000000000000000000000000000000000000000000000000000000000000081565b6040516001600160a01b03909116815260200161011a565b34801561019b57600080fd5b506101a560035481565b60405190815260200161011a565b3480156101bf57600080fd5b506100e7610411565b3480156101d457600080fd5b506101dd610425565b60405161011a9190610e9c565b3480156101f657600080fd5b5061020a610205366004610e22565b6104b3565b6040516001600160401b03909116815260200161011a565b34801561022e57600080fd5b5061025161023d366004610eaf565b6001600160a01b0381163014949350505050565b604051901515815260200161011a565b34801561026d57600080fd5b506000546001600160a01b0316610177565b34801561028b57600080fd5b506101a561029a366004610f15565b60016020526000908152604090205481565b3480156102b857600080fd5b506100e76102c7366004610f30565b6104f1565b3480156102d857600080fd5b506100e76102e7366004610f30565b610577565b3480156102f857600080fd5b50610251610307366004610f54565b6105b5565b34801561031857600080fd5b5061032c610327366004611043565b6105eb565b60405161011a93929190611152565b7f00000000000000000000000000000000000000000000000000000000000000006001600160a01b0316331461038b576040516391ac5e4f60e01b81523360048201526024015b60405180910390fd5b602087018035906103a5906103a0908a610f15565b610883565b146103e3576103b76020880188610f15565b60405163309afaf360e21b815263ffffffff909116600482015260208801356024820152604401610382565b6103f2878787878787876108bf565b50505050505050565b610403610948565b61040d8282610975565b5050565b610419610948565b61042360006109ca565b565b6004805461043290611186565b80601f016020809104026020016040519081016040528092919081815260200182805461045e90611186565b80156104ab5780601f10610480576101008083540402835291602001916104ab565b820191906000526020600020905b81548152906001019060200180831161048e57829003601f168201915b505050505081565b63ffffffff821660009081526002602090815260408083208484529091528120546104e8906001600160401b031660016111d0565b90505b92915050565b6104f9610948565b60405163ca5eb5e160e01b81526001600160a01b0382811660048301527f0000000000000000000000000000000000000000000000000000000000000000169063ca5eb5e190602401600060405180830381600087803b15801561055c57600080fd5b505af1158015610570573d6000803e3d6000fd5b5050505050565b61057f610948565b6001600160a01b0381166105a957604051631e4fbdf760e01b815260006004820152602401610382565b6105b2816109ca565b50565b60006020820180359060019083906105cd9086610f15565b63ffffffff1681526020810191909152604001600020541492915050565b6040805160e08101825260008082526020820181905291810182905260608082018390526080820181905260a0820181905260c08201526040805180820190915260008082526020820152600080855111610655576040518060200160405280600081525061068e565b61068e600062030d40600061068660408051600360f01b602082015281516002818303018152602290910190915290565b929190610a1a565b90506040518060e001604052808963ffffffff1681526020016106b7886001600160a01b031690565b815260200188815260200188815260200182815260200186815260200160405180602001604052806000815250815250925060008990506000816001600160a01b0316630d35b415866040518263ffffffff1660e01b815260040161071c91906111f7565b600060405180830381865afa158015610739573d6000803e3d6000fd5b505050506040513d6000823e601f3d908101601f19168201604052610761919081019061123a565b60208101516060890152604051633b6f743b60e01b81529093506001600160a01b0385169250633b6f743b915061079f908890600090600401611398565b6040805180830381865afa1580156107bb573d6000803e3d6000fd5b505050506040513d601f19601f820116820180604052508101906107df91906113bc565b93508360000151955060006001600160a01b0316826001600160a01b031663fc0c546a6040518163ffffffff1660e01b8152600401602060405180830381865afa158015610831573d6000803e3d6000fd5b505050506040513d601f19601f8201168201806040525081019061085591906113d8565b6001600160a01b03160361087557604085015161087290876113f5565b95505b505050955095509592505050565b63ffffffff8116600090815260016020526040812054806104eb5760405163f6ff4fb760e01b815263ffffffff84166004820152602401610382565b6108e96108cf6020890189610f15565b60208901356108e460608b0160408c01611408565b610a84565b6108f584860186611431565b60049061090290826114c9565b507f0d8291c70d2bb268eb9759e50f86de9237a804a0f6f014192af802551d5a2f3f60048686604051610937939291906115b1565b60405180910390a150505050505050565b6000546001600160a01b031633146104235760405163118cdaa760e01b8152336004820152602401610382565b63ffffffff8216600081815260016020908152604091829020849055815192835282018390527f238399d427b947898edb290f5ff0f9109849b1c3ba196a42e35f00c50a54b98b910160405180910390a15050565b600080546001600160a01b038381166001600160a01b0319831681178455604051919092169283917f8be0079c531659141344cd1fd0a4f28419497f9722a3daafe3b4186f6b6457e09190a35050565b6060846003610a2a826000610b4e565b61ffff1614610a5e57610a3e816000610b4e565b604051633a51740d60e01b815261ffff9091166004820152602401610382565b6000610a6b868686610bab565b9050610a7987600383610c57565b979650505050505050565b63ffffffff831660009081526002602090815260408083208584529091528120805460019290610abe9084906001600160401b03166111d0565b82546101009290920a6001600160401b0381810219909316918316021790915563ffffffff851660009081526002602090815260408083208784529091529020548116908316149050610b495760405162461bcd60e51b81526020600482015260136024820152724f4170703a20696e76616c6964206e6f6e636560681b6044820152606401610382565b505050565b6000610b5b8260026113f5565b83511015610ba25760405162461bcd60e51b8152602060048201526014602482015273746f55696e7431365f6f75744f66426f756e647360601b6044820152606401610382565b50016002015190565b60606fffffffffffffffffffffffffffffffff821615610c11576040516001600160f01b031960f086901b1660208201526001600160801b0319608085811b8216602284015284901b166032820152604201604051602081830303815290604052610c4f565b6040516001600160f01b031960f086901b1660208201526001600160801b0319608085901b1660228201526032016040516020818303038152906040525b949350505050565b6060836003610c67826000610b4e565b61ffff1614610c7b57610a3e816000610b4e565b846001610c888551610cc2565b610c93906001611655565b8686604051602001610ca9959493929190611670565b6040516020818303038152906040529150509392505050565b600061ffff821115610cf1576040516306dfcc6560e41b81526010600482015260248101839052604401610382565b5090565b600060608284031215610d0757600080fd5b50919050565b60008083601f840112610d1f57600080fd5b5081356001600160401b03811115610d3657600080fd5b602083019150836020828501011115610d4e57600080fd5b9250929050565b6001600160a01b03811681146105b257600080fd5b600080600080600080600060e0888a031215610d8557600080fd5b610d8f8989610cf5565b96506060880135955060808801356001600160401b0380821115610db257600080fd5b610dbe8b838c01610d0d565b909750955060a08a01359150610dd382610d55565b90935060c08901359080821115610de957600080fd5b50610df68a828b01610d0d565b989b979a50959850939692959293505050565b803563ffffffff81168114610e1d57600080fd5b919050565b60008060408385031215610e3557600080fd5b610e3e83610e09565b946020939093013593505050565b60005b83811015610e67578181015183820152602001610e4f565b50506000910152565b60008151808452610e88816020860160208601610e4c565b601f01601f19169290920160200192915050565b6020815260006104e86020830184610e70565b60008060008060a08587031215610ec557600080fd5b610ecf8686610cf5565b935060608501356001600160401b03811115610eea57600080fd5b610ef687828801610d0d565b9094509250506080850135610f0a81610d55565b939692955090935050565b600060208284031215610f2757600080fd5b6104e882610e09565b600060208284031215610f4257600080fd5b8135610f4d81610d55565b9392505050565b600060608284031215610f6657600080fd5b6104e88383610cf5565b634e487b7160e01b600052604160045260246000fd5b604080519081016001600160401b0381118282101715610fa857610fa8610f70565b60405290565b604051601f8201601f191681016001600160401b0381118282101715610fd657610fd6610f70565b604052919050565b60006001600160401b03821115610ff757610ff7610f70565b50601f01601f191660200190565b600061101861101384610fde565b610fae565b905082815283838301111561102c57600080fd5b828260208301376000602084830101529392505050565b600080600080600060a0868803121561105b57600080fd5b853561106681610d55565b945061107460208701610e09565b935060408601359250606086013561108b81610d55565b915060808601356001600160401b038111156110a657600080fd5b8601601f810188136110b757600080fd5b6110c688823560208401611005565b9150509295509295909350565b63ffffffff81511682526020810151602083015260408101516040830152606081015160608301526000608082015160e0608085015261111660e0850182610e70565b905060a083015184820360a086015261112f8282610e70565b91505060c083015184820360c08601526111498282610e70565b95945050505050565b83815260806020820152600061116b60808301856110d3565b90508251604083015260208301516060830152949350505050565b600181811c9082168061119a57607f821691505b602082108103610d0757634e487b7160e01b600052602260045260246000fd5b634e487b7160e01b600052601160045260246000fd5b6001600160401b038181168382160190808211156111f0576111f06111ba565b5092915050565b6020815260006104e860208301846110d3565b60006040828403121561121c57600080fd5b611224610f86565b9050815181526020820151602082015292915050565b600080600060a0848603121561124f57600080fd5b611259858561120a565b925060408401516001600160401b038082111561127557600080fd5b818601915086601f83011261128957600080fd5b815160208282111561129d5761129d610f70565b8160051b6112ac828201610fae565b928352848101820192828101908b8511156112c657600080fd5b83870192505b84831015611378578251868111156112e357600080fd5b87016040818e03601f190112156112f957600080fd5b611301610f86565b85820151815260408201518881111561131957600080fd5b8083019250508d603f83011261132e57600080fd5b8582015161133e61101382610fde565b8181528f604083860101111561135357600080fd5b6113638289830160408701610e4c565b828801525083525091830191908301906112cc565b8098505050505050505061138f856060860161120a565b90509250925092565b6040815260006113ab60408301856110d3565b905082151560208301529392505050565b6000604082840312156113ce57600080fd5b6104e8838361120a565b6000602082840312156113ea57600080fd5b8151610f4d81610d55565b808201808211156104eb576104eb6111ba565b60006020828403121561141a57600080fd5b81356001600160401b0381168114610f4d57600080fd5b60006020828403121561144357600080fd5b81356001600160401b0381111561145957600080fd5b8201601f8101841361146a57600080fd5b610c4f84823560208401611005565b601f821115610b49576000816000526020600020601f850160051c810160208610156114a25750805b601f850160051c820191505b818110156114c1578281556001016114ae565b505050505050565b81516001600160401b038111156114e2576114e2610f70565b6114f6816114f08454611186565b84611479565b602080601f83116001811461152b57600084156115135750858301515b600019600386901b1c1916600185901b1785556114c1565b600085815260208120601f198616915b8281101561155a5788860151825594840194600190910190840161153b565b50858210156115785787850151600019600388901b60f8161c191681555b5050505050600190811b01905550565b81835281816020850137506000828201602090810191909152601f909101601f19169091010190565b6040815260008085546115c381611186565b80604086015260606001808416600081146115e5576001811461160157611633565b60ff1985166060890152606084151560051b8901019550611633565b8a60005260208060002060005b868110156116295781548b820187015290840190820161160e565b8a01606001975050505b5050505050828103602084015261164b818587611588565b9695505050505050565b61ffff8181168382160190808211156111f0576111f06111ba565b60008651611682818460208b01610e4c565b6001600160f81b031960f888811b82169285019283526001600160f01b031960f089901b16600184015286901b16600382015283516116c8816004840160208801610e4c565b0160040197965050505050505056fea2646970667358221220937e2a6004c79a736ac46d546fe9688d2a580c4dae9b5267beda7acf50fbdc9364736f6c63430008160033",
  "devdoc": {
    "errors": {
      "OwnableInvalidOwner(address)": [
        {
          "details": "The owner is not a valid owner account. (eg. `address(0)`)"
        }
      ],
      "OwnableUnauthorizedAccount(address)": [
        {
          "details": "The caller account is not authorized to perform an operation."
        }
      ],
      "SafeCastOverflowedUintDowncast(uint8,uint256)": [
        {
          "details": "Value doesn't fit in an uint of `bits` size."
        }
      ]
    },
    "kind": "dev",
    "methods": {
      "allowInitializePath((uint32,bytes32,uint64))": {
        "details": "This indicates to the endpoint that the OApp has enabled msgs for this particular path to be received.This defaults to assuming if a peer has been set, its initialized. Can be overridden by the OApp if there is other logic to determine this.",
        "params": {
          "origin": "The origin information containing the source endpoint and sender address."
        },
        "returns": {
          "_0": "Whether the path has been initialized."
        }
      },
      "isComposeMsgSender((uint32,bytes32,uint64),bytes,address)": {
        "details": "_origin The origin information containing the source endpoint and sender address.  - srcEid: The source chain endpoint ID.  - sender: The sender address on the src chain.  - nonce: The nonce of the message._message The lzReceive payload.Applications can optionally choose to implement separate composeMsg senders that are NOT the bridging layer.The default sender IS the OAppReceiver implementer.",
        "params": {
          "_sender": "The sender address."
        },
        "returns": {
          "_0": "isSender Is a valid sender."
        }
      },
      "lzReceive((uint32,bytes32,uint64),bytes32,bytes,address,bytes)": {
        "details": "Entry point for receiving messages or packets from the endpoint.Entry point for receiving msg/packet from the LayerZero endpoint.",
        "params": {
          "_executor": "The address of the executor for the received message.",
          "_extraData": "Additional arbitrary data provided by the corresponding executor.",
          "_guid": "The unique identifier for the received LayerZero message.",
          "_message": "The payload of the received message.",
          "_origin": "The origin information containing the source endpoint and sender address.  - srcEid: The source chain endpoint ID.  - sender: The sender address on the src chain.  - nonce: The nonce of the message."
        }
      },
      "nextNonce(uint32,bytes32)": {
        "details": "Public function to get the next expected nonce for a given source endpoint and sender.",
        "params": {
          "_sender": "Sender's address in bytes32 format.",
          "_srcEid": "Source endpoint ID."
        },
        "returns": {
          "_0": "uint64 Next expected nonce."
        }
      },
      "oAppVersion()": {
        "details": "Providing 0 as the default for OAppSender version. Indicates that the OAppSender is not implemented. ie. this is a RECEIVE only OApp.If the OApp uses both OAppSender and OAppReceiver, then this needs to be override returning the correct versions.",
        "returns": {
          "receiverVersion": "The version of the OAppReceiver.sol contract.",
          "senderVersion": "The version of the OAppSender.sol contract."
        }
      },
      "owner()": {
        "details": "Returns the address of the current owner."
      },
      "renounceOwnership()": {
        "details": "Leaves the contract without owner. It will not be possible to call `onlyOwner` functions. Can only be called by the current owner. NOTE: Renouncing ownership will leave the contract without an owner, thereby disabling any functionality that is only available to the owner."
      },
      "setDelegate(address)": {
        "details": "Only the owner/admin of the OApp can call this function.Provides the ability for a delegate to set configs, on behalf of the OApp, directly on the Endpoint contract.",
        "params": {
          "_delegate": "The address of the delegate to be set."
        }
      },
      "setPeer(uint32,bytes32)": {
        "details": "Only the owner/admin of the OApp can call this function.Indicates that the peer is trusted to send LayerZero messages to this OApp.Set this to bytes32(0) to remove the peer address.Peer is a bytes32 to accommodate non-evm chains.",
        "params": {
          "_eid": "The endpoint ID.",
          "_peer": "The address of the peer to be associated with the corresponding endpoint."
        }
      },
      "transferOwnership(address)": {
        "details": "Transfers ownership of the contract to a new account (`newOwner`). Can only be called by the current owner."
      }
    },
    "version": 1
  },
  "userdoc": {
    "kind": "user",
    "methods": {
      "allowInitializePath((uint32,bytes32,uint64))": {
        "notice": "Checks if the path initialization is allowed based on the provided origin."
      },
      "endpoint()": {
        "notice": "Retrieves the LayerZero endpoint associated with the OApp."
      },
      "isComposeMsgSender((uint32,bytes32,uint64),bytes,address)": {
        "notice": "Indicates whether an address is an approved composeMsg sender to the Endpoint."
      },
      "oAppVersion()": {
        "notice": "Retrieves the OApp version information."
      },
      "peers(uint32)": {
        "notice": "Retrieves the peer (OApp) associated with a corresponding endpoint."
      },
      "setDelegate(address)": {
        "notice": "Sets the delegate address for the OApp."
      },
      "setPeer(uint32,bytes32)": {
        "notice": "Sets the peer address (OApp instance) for a corresponding endpoint."
      }
    },
    "version": 1
  },
  "storageLayout": {
    "storage": [
      {
        "astId": 3073,
        "contract": "contracts/StargateOApp.sol:StargateOApp",
        "label": "_owner",
        "offset": 0,
        "slot": "0",
        "type": "t_address"
      },
      {
        "astId": 539,
        "contract": "contracts/StargateOApp.sol:StargateOApp",
        "label": "peers",
        "offset": 0,
        "slot": "1",
        "type": "t_mapping(t_uint32,t_bytes32)"
      },
      {
        "astId": 6445,
        "contract": "contracts/StargateOApp.sol:StargateOApp",
        "label": "receivedNonce",
        "offset": 0,
        "slot": "2",
        "type": "t_mapping(t_uint32,t_mapping(t_bytes32,t_uint64))"
      },
      {
        "astId": 6447,
        "contract": "contracts/StargateOApp.sol:StargateOApp",
        "label": "acknowledgedCount",
        "offset": 0,
        "slot": "3",
        "type": "t_uint256"
      },
      {
        "astId": 6450,
        "contract": "contracts/StargateOApp.sol:StargateOApp",
        "label": "data",
        "offset": 0,
        "slot": "4",
        "type": "t_string_storage"
      }
    ],
    "types": {
      "t_address": {
        "encoding": "inplace",
        "label": "address",
        "numberOfBytes": "20"
      },
      "t_bytes32": {
        "encoding": "inplace",
        "label": "bytes32",
        "numberOfBytes": "32"
      },
      "t_mapping(t_bytes32,t_uint64)": {
        "encoding": "mapping",
        "key": "t_bytes32",
        "label": "mapping(bytes32 => uint64)",
        "numberOfBytes": "32",
        "value": "t_uint64"
      },
      "t_mapping(t_uint32,t_bytes32)": {
        "encoding": "mapping",
        "key": "t_uint32",
        "label": "mapping(uint32 => bytes32)",
        "numberOfBytes": "32",
        "value": "t_bytes32"
      },
      "t_mapping(t_uint32,t_mapping(t_bytes32,t_uint64))": {
        "encoding": "mapping",
        "key": "t_uint32",
        "label": "mapping(uint32 => mapping(bytes32 => uint64))",
        "numberOfBytes": "32",
        "value": "t_mapping(t_bytes32,t_uint64)"
      },
      "t_string_storage": {
        "encoding": "bytes",
        "label": "string",
        "numberOfBytes": "32"
      },
      "t_uint256": {
        "encoding": "inplace",
        "label": "uint256",
        "numberOfBytes": "32"
      },
      "t_uint32": {
        "encoding": "inplace",
        "label": "uint32",
        "numberOfBytes": "4"
      },
      "t_uint64": {
        "encoding": "inplace",
        "label": "uint64",
        "numberOfBytes": "8"
      }
    }
  }
}