{
  "address": "0x336FD68e735D4803F9AC3fC7D52B95C4Db0F278E",
  "abi": [
    {
      "inputs": [
        {
          "internalType": "address",
          "name": "_endpoint",
          "type": "address"
        },
        {
          "internalType": "address",
          "name": "_delegate",
          "type": "address"
        }
      ],
      "stateMutability": "nonpayable",
      "type": "constructor"
    },
    {
      "inputs": [
        {
          "internalType": "address",
          "name": "target",
          "type": "address"
        }
      ],
      "name": "AddressEmptyCode",
      "type": "error"
    },
    {
      "inputs": [
        {
          "internalType": "address",
          "name": "account",
          "type": "address"
        }
      ],
      "name": "AddressInsufficientBalance",
      "type": "error"
    },
    {
      "inputs": [],
      "name": "FailedInnerCall",
      "type": "error"
    },
    {
      "inputs": [],
      "name": "InvalidDelegate",
      "type": "error"
    },
    {
      "inputs": [],
      "name": "InvalidEndpointCall",
      "type": "error"
    },
    {
      "inputs": [],
      "name": "LzTokenUnavailable",
      "type": "error"
    },
    {
      "inputs": [
        {
          "internalType": "uint32",
          "name": "eid",
          "type": "uint32"
        }
      ],
      "name": "NoPeer",
      "type": "error"
    },
    {
      "inputs": [
        {
          "internalType": "uint256",
          "name": "msgValue",
          "type": "uint256"
        }
      ],
      "name": "NotEnoughNative",
      "type": "error"
    },
    {
      "inputs": [
        {
          "internalType": "address",
          "name": "addr",
          "type": "address"
        }
      ],
      "name": "OnlyEndpoint",
      "type": "error"
    },
    {
      "inputs": [
        {
          "internalType": "uint32",
          "name": "eid",
          "type": "uint32"
        },
        {
          "internalType": "bytes32",
          "name": "sender",
          "type": "bytes32"
        }
      ],
      "name": "OnlyPeer",
      "type": "error"
    },
    {
      "inputs": [
        {
          "internalType": "address",
          "name": "owner",
          "type": "address"
        }
      ],
      "name": "OwnableInvalidOwner",
      "type": "error"
    },
    {
      "inputs": [
        {
          "internalType": "address",
          "name": "account",
          "type": "address"
        }
      ],
      "name": "OwnableUnauthorizedAccount",
      "type": "error"
    },
    {
      "inputs": [
        {
          "internalType": "address",
          "name": "token",
          "type": "address"
        }
      ],
      "name": "SafeERC20FailedOperation",
      "type": "error"
    },
    {
      "anonymous": false,
      "inputs": [
        {
          "indexed": false,
          "internalType": "string",
          "name": "data",
          "type": "string"
        },
        {
          "indexed": false,
          "internalType": "bytes",
          "name": "payload",
          "type": "bytes"
        }
      ],
      "name": "MessageReceived",
      "type": "event"
    },
    {
      "anonymous": false,
      "inputs": [
        {
          "indexed": true,
          "internalType": "address",
          "name": "previousOwner",
          "type": "address"
        },
        {
          "indexed": true,
          "internalType": "address",
          "name": "newOwner",
          "type": "address"
        }
      ],
      "name": "OwnershipTransferred",
      "type": "event"
    },
    {
      "anonymous": false,
      "inputs": [
        {
          "indexed": false,
          "internalType": "uint32",
          "name": "eid",
          "type": "uint32"
        },
        {
          "indexed": false,
          "internalType": "bytes32",
          "name": "peer",
          "type": "bytes32"
        }
      ],
      "name": "PeerSet",
      "type": "event"
    },
    {
      "inputs": [
        {
          "components": [
            {
              "internalType": "uint32",
              "name": "srcEid",
              "type": "uint32"
            },
            {
              "internalType": "bytes32",
              "name": "sender",
              "type": "bytes32"
            },
            {
              "internalType": "uint64",
              "name": "nonce",
              "type": "uint64"
            }
          ],
          "internalType": "struct Origin",
          "name": "origin",
          "type": "tuple"
        }
      ],
      "name": "allowInitializePath",
      "outputs": [
        {
          "internalType": "bool",
          "name": "",
          "type": "bool"
        }
      ],
      "stateMutability": "view",
      "type": "function"
    },
    {
      "inputs": [],
      "name": "data",
      "outputs": [
        {
          "internalType": "string",
          "name": "",
          "type": "string"
        }
      ],
      "stateMutability": "view",
      "type": "function"
    },
    {
      "inputs": [],
      "name": "endpoint",
      "outputs": [
        {
          "internalType": "contract ILayerZeroEndpointV2",
          "name": "",
          "type": "address"
        }
      ],
      "stateMutability": "view",
      "type": "function"
    },
    {
      "inputs": [
        {
          "components": [
            {
              "internalType": "uint32",
              "name": "srcEid",
              "type": "uint32"
            },
            {
              "internalType": "bytes32",
              "name": "sender",
              "type": "bytes32"
            },
            {
              "internalType": "uint64",
              "name": "nonce",
              "type": "uint64"
            }
          ],
          "internalType": "struct Origin",
          "name": "",
          "type": "tuple"
        },
        {
          "internalType": "bytes",
          "name": "",
          "type": "bytes"
        },
        {
          "internalType": "address",
          "name": "_sender",
          "type": "address"
        }
      ],
      "name": "isComposeMsgSender",
      "outputs": [
        {
          "internalType": "bool",
          "name": "",
          "type": "bool"
        }
      ],
      "stateMutability": "view",
      "type": "function"
    },
    {
      "inputs": [
        {
          "components": [
            {
              "internalType": "uint32",
              "name": "srcEid",
              "type": "uint32"
            },
            {
              "internalType": "bytes32",
              "name": "sender",
              "type": "bytes32"
            },
            {
              "internalType": "uint64",
              "name": "nonce",
              "type": "uint64"
            }
          ],
          "internalType": "struct Origin",
          "name": "_origin",
          "type": "tuple"
        },
        {
          "internalType": "bytes32",
          "name": "_guid",
          "type": "bytes32"
        },
        {
          "internalType": "bytes",
          "name": "_message",
          "type": "bytes"
        },
        {
          "internalType": "address",
          "name": "_executor",
          "type": "address"
        },
        {
          "internalType": "bytes",
          "name": "_extraData",
          "type": "bytes"
        }
      ],
      "name": "lzReceive",
      "outputs": [],
      "stateMutability": "payable",
      "type": "function"
    },
    {
      "inputs": [
        {
          "internalType": "uint32",
          "name": "_srcEid",
          "type": "uint32"
        },
        {
          "internalType": "bytes32",
          "name": "_sender",
          "type": "bytes32"
        }
      ],
      "name": "nextNonce",
      "outputs": [
        {
          "internalType": "uint64",
          "name": "",
          "type": "uint64"
        }
      ],
      "stateMutability": "view",
      "type": "function"
    },
    {
      "inputs": [],
      "name": "oAppVersion",
      "outputs": [
        {
          "internalType": "uint64",
          "name": "senderVersion",
          "type": "uint64"
        },
        {
          "internalType": "uint64",
          "name": "receiverVersion",
          "type": "uint64"
        }
      ],
      "stateMutability": "pure",
      "type": "function"
    },
    {
      "inputs": [],
      "name": "owner",
      "outputs": [
        {
          "internalType": "address",
          "name": "",
          "type": "address"
        }
      ],
      "stateMutability": "view",
      "type": "function"
    },
    {
      "inputs": [
        {
          "internalType": "uint32",
          "name": "eid",
          "type": "uint32"
        }
      ],
      "name": "peers",
      "outputs": [
        {
          "internalType": "bytes32",
          "name": "peer",
          "type": "bytes32"
        }
      ],
      "stateMutability": "view",
      "type": "function"
    },
    {
      "inputs": [
        {
          "internalType": "uint32",
          "name": "_dstEid",
          "type": "uint32"
        },
        {
          "internalType": "string",
          "name": "_message",
          "type": "string"
        },
        {
          "internalType": "bytes",
          "name": "_options",
          "type": "bytes"
        },
        {
          "internalType": "bool",
          "name": "_payInLzToken",
          "type": "bool"
        }
      ],
      "name": "quote",
      "outputs": [
        {
          "components": [
            {
              "internalType": "uint256",
              "name": "nativeFee",
              "type": "uint256"
            },
            {
              "internalType": "uint256",
              "name": "lzTokenFee",
              "type": "uint256"
            }
          ],
          "internalType": "struct MessagingFee",
          "name": "fee",
          "type": "tuple"
        }
      ],
      "stateMutability": "view",
      "type": "function"
    },
    {
      "inputs": [],
      "name": "renounceOwnership",
      "outputs": [],
      "stateMutability": "nonpayable",
      "type": "function"
    },
    {
      "inputs": [
        {
          "internalType": "uint32",
          "name": "_dstEid",
          "type": "uint32"
        },
        {
          "internalType": "string",
          "name": "_message",
          "type": "string"
        },
        {
          "internalType": "bytes",
          "name": "_options",
          "type": "bytes"
        }
      ],
      "name": "send",
      "outputs": [
        {
          "components": [
            {
              "internalType": "bytes32",
              "name": "guid",
              "type": "bytes32"
            },
            {
              "internalType": "uint64",
              "name": "nonce",
              "type": "uint64"
            },
            {
              "components": [
                {
                  "internalType": "uint256",
                  "name": "nativeFee",
                  "type": "uint256"
                },
                {
                  "internalType": "uint256",
                  "name": "lzTokenFee",
                  "type": "uint256"
                }
              ],
              "internalType": "struct MessagingFee",
              "name": "fee",
              "type": "tuple"
            }
          ],
          "internalType": "struct MessagingReceipt",
          "name": "receipt",
          "type": "tuple"
        }
      ],
      "stateMutability": "payable",
      "type": "function"
    },
    {
      "inputs": [
        {
          "internalType": "uint32",
          "name": "_dstEid",
          "type": "uint32"
        },
        {
          "internalType": "string[]",
          "name": "_messages",
          "type": "string[]"
        },
        {
          "internalType": "bytes[]",
          "name": "_options",
          "type": "bytes[]"
        },
        {
          "internalType": "uint256[]",
          "name": "fees",
          "type": "uint256[]"
        }
      ],
      "name": "sendBatch",
      "outputs": [
        {
          "components": [
            {
              "internalType": "bytes32",
              "name": "guid",
              "type": "bytes32"
            },
            {
              "internalType": "uint64",
              "name": "nonce",
              "type": "uint64"
            },
            {
              "components": [
                {
                  "internalType": "uint256",
                  "name": "nativeFee",
                  "type": "uint256"
                },
                {
                  "internalType": "uint256",
                  "name": "lzTokenFee",
                  "type": "uint256"
                }
              ],
              "internalType": "struct MessagingFee",
              "name": "fee",
              "type": "tuple"
            }
          ],
          "internalType": "struct MessagingReceipt[]",
          "name": "receipts",
          "type": "tuple[]"
        }
      ],
      "stateMutability": "payable",
      "type": "function"
    },
    {
      "inputs": [
        {
          "internalType": "address",
          "name": "_delegate",
          "type": "address"
        }
      ],
      "name": "setDelegate",
      "outputs": [],
      "stateMutability": "nonpayable",
      "type": "function"
    },
    {
      "inputs": [
        {
          "internalType": "uint32",
          "name": "_eid",
          "type": "uint32"
        },
        {
          "internalType": "bytes32",
          "name": "_peer",
          "type": "bytes32"
        }
      ],
      "name": "setPeer",
      "outputs": [],
      "stateMutability": "nonpayable",
      "type": "function"
    },
    {
      "inputs": [
        {
          "internalType": "address",
          "name": "newOwner",
          "type": "address"
        }
      ],
      "name": "transferOwnership",
      "outputs": [],
      "stateMutability": "nonpayable",
      "type": "function"
    }
  ],
  "transactionHash": "0x8a7c2d8fe1f42a02b2086ee22b5d692d6aed63964f1363551ce451f25c51f5e7",
  "args": [
    "0x6EDCE65403992e310A62460808c4b910D972f10f",
    "0x436f795B64E23E6cE7792af4923A68AFD3967952"
  ],
  "numDeployments": 1,
  "solcInputHash": "69e079fecfbc63c1aa5aff251750c784",
  "bytecode": "0x60e0604052601560a09081527f4e6f7468696e67207265636569766564207965742e000000000000000000000060c0526003906200003e908262000241565b503480156200004c57600080fd5b5060405162002095380380620020958339810160408190526200006f916200032a565b81818181806001600160a01b038116620000a357604051631e4fbdf760e01b81526000600482015260240160405180910390fd5b620000ae816200014a565b506001600160a01b038083166080528116620000dd57604051632d618d8160e21b815260040160405180910390fd5b60805160405163ca5eb5e160e01b81526001600160a01b0383811660048301529091169063ca5eb5e190602401600060405180830381600087803b1580156200012557600080fd5b505af11580156200013a573d6000803e3d6000fd5b5050505050505050505062000362565b600080546001600160a01b038381166001600160a01b0319831681178455604051919092169283917f8be0079c531659141344cd1fd0a4f28419497f9722a3daafe3b4186f6b6457e09190a35050565b634e487b7160e01b600052604160045260246000fd5b600181811c90821680620001c557607f821691505b602082108103620001e657634e487b7160e01b600052602260045260246000fd5b50919050565b601f8211156200023c576000816000526020600020601f850160051c81016020861015620002175750805b601f850160051c820191505b81811015620002385782815560010162000223565b5050505b505050565b81516001600160401b038111156200025d576200025d6200019a565b62000275816200026e8454620001b0565b84620001ec565b602080601f831160018114620002ad5760008415620002945750858301515b600019600386901b1c1916600185901b17855562000238565b600085815260208120601f198616915b82811015620002de57888601518255948401946001909101908401620002bd565b5085821015620002fd5787850151600019600388901b60f8161c191681555b5050505050600190811b01905550565b80516001600160a01b03811681146200032557600080fd5b919050565b600080604083850312156200033e57600080fd5b62000349836200030d565b915062000359602084016200030d565b90509250929050565b608051611ced620003a860003960008181610166015281816103760152818161055101528181610bbd01528181610ca401528181610e3d0152610ef40152611ced6000f3fe6080604052600436106100f35760003560e01c80638da5cb5b1161008a578063e0539e5811610059578063e0539e58146102e7578063f2fde38b14610307578063f77e5dd314610327578063ff7bd03d1461035457600080fd5b80638da5cb5b1461024e578063bb0b6a531461026c578063ca5eb5e1146102a7578063d3efdb66146102c757600080fd5b8063715018a6116100c6578063715018a6146101a057806373d4a13a146101b55780637d25a05e146101d757806382413eac1461020f57600080fd5b806313137d65146100f857806317442b701461010d5780633400288b146101345780635e280f1114610154575b600080fd5b61010b610106366004611199565b610374565b005b34801561011957600080fd5b50604080516001815260026020820152015b60405180910390f35b34801561014057600080fd5b5061010b61014f366004611251565b610434565b34801561016057600080fd5b506101887f000000000000000000000000000000000000000000000000000000000000000081565b6040516001600160a01b03909116815260200161012b565b3480156101ac57600080fd5b5061010b61044a565b3480156101c157600080fd5b506101ca61045e565b60405161012b91906112cb565b3480156101e357600080fd5b506101f76101f2366004611251565b6104ec565b6040516001600160401b03909116815260200161012b565b34801561021b57600080fd5b5061023e61022a3660046112de565b6001600160a01b0381163014949350505050565b604051901515815260200161012b565b34801561025a57600080fd5b506000546001600160a01b0316610188565b34801561027857600080fd5b50610299610287366004611344565b60016020526000908152604090205481565b60405190815260200161012b565b3480156102b357600080fd5b5061010b6102c236600461135f565b61052a565b6102da6102d536600461150f565b6105b0565b60405161012b9190611655565b6102fa6102f53660046116a3565b61087f565b60405161012b9190611719565b34801561031357600080fd5b5061010b61032236600461135f565b610908565b34801561033357600080fd5b50610347610342366004611735565b610946565b60405161012b91906117c4565b34801561036057600080fd5b5061023e61036f3660046117db565b61098a565b7f00000000000000000000000000000000000000000000000000000000000000006001600160a01b031633146103c4576040516391ac5e4f60e01b81523360048201526024015b60405180910390fd5b602087018035906103de906103d9908a611344565b6109c0565b1461041c576103f06020880188611344565b60405163309afaf360e21b815263ffffffff9091166004820152602088013560248201526044016103bb565b61042b878787878787876109fc565b50505050505050565b61043c610a85565b6104468282610ab2565b5050565b610452610a85565b61045c6000610b07565b565b6003805461046b906117f7565b80601f0160208091040260200160405190810160405280929190818152602001828054610497906117f7565b80156104e45780601f106104b9576101008083540402835291602001916104e4565b820191906000526020600020905b8154815290600101906020018083116104c757829003601f168201915b505050505081565b63ffffffff82166000908152600260209081526040808320848452909152812054610521906001600160401b03166001611841565b90505b92915050565b610532610a85565b60405163ca5eb5e160e01b81526001600160a01b0382811660048301527f0000000000000000000000000000000000000000000000000000000000000000169063ca5eb5e190602401600060405180830381600087803b15801561059557600080fd5b505af11580156105a9573d6000803e3d6000fd5b5050505050565b835160609083146106225760405162461bcd60e51b815260206004820152603660248201527f546865206c656e677468206f66206d6573736167657320616e64206f7074696f60448201527537399039b437bab632103132903a34329039b0b6b29760511b60648201526084016103bb565b815185511461068f5760405162461bcd60e51b815260206004820152603360248201527f546865206c656e677468206f66206d6573736167657320616e6420666565732060448201527239b437bab632103132903a34329039b0b6b29760691b60648201526084016103bb565b6000805b83518110156106cb578381815181106106ae576106ae611868565b6020026020010151826106c1919061187e565b9150600101610693565b50803410156107105760405162461bcd60e51b815260206004820152601160248201527024b739bab33334b1b4b2b73a103332b29760791b60448201526064016103bb565b600086516001600160401b0381111561072b5761072b61137c565b60405190808252806020026020018201604052801561076457816020015b6107516110dd565b8152602001906001900390816107495790505b50905060005b875181101561087357600088828151811061078757610787611868565b602002602001015160405160200161079f91906112cb565b604051602081830303815290604052905060006108498b838b8b878181106107c9576107c9611868565b90506020028101906107db9190611891565b8080601f01602080910402602001604051908101604052809392919081815260200183838082843760009201919091525050604080518082019091528d519092508291508d908a90811061083157610831611868565b60200260200101518152602001600081525033610b57565b90508084848151811061085e5761085e611868565b6020908102919091010152505060010161076a565b50979650505050505050565b6108876110dd565b60008460405160200161089a91906112cb565b60408051601f198184030181526020601f870181900481028401810190925285835292506108fe918891849190889088908190840183828082843760009201829052506040805180820190915234815260208101919091529250339150610b579050565b9695505050505050565b610910610a85565b6001600160a01b03811661093a57604051631e4fbdf760e01b8152600060048201526024016103bb565b61094381610b07565b50565b604080518082019091526000808252602082015260008460405160200161096d91906112cb565b60405160208183030381529060405290506108fe86828686610c8e565b60006020820180359060019083906109a29086611344565b63ffffffff1681526020810191909152604001600020541492915050565b63ffffffff8116600090815260016020526040812054806105245760405163f6ff4fb760e01b815263ffffffff841660048201526024016103bb565b610a26610a0c6020890189611344565b6020890135610a2160608b0160408c016118ec565b610d6f565b610a3284860186611909565b600390610a3f9082611995565b507f0d8291c70d2bb268eb9759e50f86de9237a804a0f6f014192af802551d5a2f3f60038686604051610a7493929190611a7d565b60405180910390a150505050505050565b6000546001600160a01b0316331461045c5760405163118cdaa760e01b81523360048201526024016103bb565b63ffffffff8216600081815260016020908152604091829020849055815192835282018390527f238399d427b947898edb290f5ff0f9109849b1c3ba196a42e35f00c50a54b98b910160405180910390a15050565b600080546001600160a01b038381166001600160a01b0319831681178455604051919092169283917f8be0079c531659141344cd1fd0a4f28419497f9722a3daafe3b4186f6b6457e09190a35050565b610b5f6110dd565b8251341015610ba45760405162461bcd60e51b815260206004820152601160248201527024b739bab33334b1b4b2b73a103332b29760791b60448201526064016103bb565b602083015115610bbb57610bbb8360200151610e39565b7f00000000000000000000000000000000000000000000000000000000000000006001600160a01b0316632637a45084600001516040518060a001604052808a63ffffffff168152602001610c0f8b6109c0565b815260200189815260200188815260200160008860200151111515815250856040518463ffffffff1660e01b8152600401610c4b929190611b17565b60806040518083038185885af1158015610c69573d6000803e3d6000fd5b50505050506040513d601f19601f820116820180604052508101906108fe9190611bde565b60408051808201909152600080825260208201527f00000000000000000000000000000000000000000000000000000000000000006001600160a01b031663ddc28c586040518060a001604052808863ffffffff168152602001610cf1896109c0565b8152602001878152602001868152602001851515815250306040518363ffffffff1660e01b8152600401610d26929190611b17565b6040805180830381865afa158015610d42573d6000803e3d6000fd5b505050506040513d601f19601f82011682018060405250810190610d669190611c45565b95945050505050565b63ffffffff831660009081526002602090815260408083208584529091528120805460019290610da99084906001600160401b0316611841565b82546101009290920a6001600160401b0381810219909316918316021790915563ffffffff851660009081526002602090815260408083208784529091529020548116908316149050610e345760405162461bcd60e51b81526020600482015260136024820152724f4170703a20696e76616c6964206e6f6e636560681b60448201526064016103bb565b505050565b60007f00000000000000000000000000000000000000000000000000000000000000006001600160a01b031663e4fe1d946040518163ffffffff1660e01b8152600401602060405180830381865afa158015610e99573d6000803e3d6000fd5b505050506040513d601f19601f82011682018060405250810190610ebd9190611c61565b90506001600160a01b038116610ee6576040516329b99a9560e11b815260040160405180910390fd5b6040805133602482018190527f00000000000000000000000000000000000000000000000000000000000000006001600160a01b03818116604485015260648085018890528551808603909101815260849094019094526020830180516001600160e01b03166323b872dd60e01b179052610446938516928690610f6b908590610f71565b50505050565b6000610f866001600160a01b03841683610fd4565b90508051600014158015610fab575080806020019051810190610fa99190611c7e565b155b15610e3457604051635274afe760e01b81526001600160a01b03841660048201526024016103bb565b60606105218383600084600080856001600160a01b03168486604051610ffa9190611c9b565b60006040518083038185875af1925050503d8060008114611037576040519150601f19603f3d011682016040523d82523d6000602084013e61103c565b606091505b509150915061104c868383611058565b925050505b9392505050565b60608261106d57611068826110b4565b611051565b815115801561108457506001600160a01b0384163b155b156110ad57604051639996b31560e01b81526001600160a01b03851660048201526024016103bb565b5080611051565b8051156110c45780518082602001fd5b604051630a12f52160e11b815260040160405180910390fd5b60405180606001604052806000801916815260200160006001600160401b0316815260200161111f604051806040016040528060008152602001600081525090565b905290565b60006060828403121561113657600080fd5b50919050565b60008083601f84011261114e57600080fd5b5081356001600160401b0381111561116557600080fd5b60208301915083602082850101111561117d57600080fd5b9250929050565b6001600160a01b038116811461094357600080fd5b600080600080600080600060e0888a0312156111b457600080fd5b6111be8989611124565b96506060880135955060808801356001600160401b03808211156111e157600080fd5b6111ed8b838c0161113c565b909750955060a08a0135915061120282611184565b90935060c0890135908082111561121857600080fd5b506112258a828b0161113c565b989b979a50959850939692959293505050565b803563ffffffff8116811461124c57600080fd5b919050565b6000806040838503121561126457600080fd5b61126d83611238565b946020939093013593505050565b60005b8381101561129657818101518382015260200161127e565b50506000910152565b600081518084526112b781602086016020860161127b565b601f01601f19169290920160200192915050565b602081526000610521602083018461129f565b60008060008060a085870312156112f457600080fd5b6112fe8686611124565b935060608501356001600160401b0381111561131957600080fd5b6113258782880161113c565b909450925050608085013561133981611184565b939692955090935050565b60006020828403121561135657600080fd5b61052182611238565b60006020828403121561137157600080fd5b813561105181611184565b634e487b7160e01b600052604160045260246000fd5b604051601f8201601f191681016001600160401b03811182821017156113ba576113ba61137c565b604052919050565b60006001600160401b038211156113db576113db61137c565b5060051b60200190565b60006001600160401b038311156113fe576113fe61137c565b611411601f8401601f1916602001611392565b905082815283838301111561142557600080fd5b828260208301376000602084830101529392505050565b600082601f83011261144d57600080fd5b610521838335602085016113e5565b60008083601f84011261146e57600080fd5b5081356001600160401b0381111561148557600080fd5b6020830191508360208260051b850101111561117d57600080fd5b600082601f8301126114b157600080fd5b813560206114c66114c1836113c2565b611392565b8083825260208201915060208460051b8701019350868411156114e857600080fd5b602086015b8481101561150457803583529183019183016114ed565b509695505050505050565b60008060008060006080868803121561152757600080fd5b61153086611238565b94506020808701356001600160401b038082111561154d57600080fd5b818901915089601f83011261156157600080fd5b813561156f6114c1826113c2565b81815260059190911b8301840190848101908c83111561158e57600080fd5b8585015b838110156115c6578035858111156115aa5760008081fd5b6115b88f89838a010161143c565b845250918601918601611592565b509850505060408901359250808311156115df57600080fd5b6115eb8a848b0161145c565b9096509450606089013592508591508083111561160757600080fd5b5050611615888289016114a0565b9150509295509295909350565b805182526001600160401b0360208201511660208301526040810151610e34604084018280518252602090810151910152565b6020808252825182820181905260009190848201906040850190845b8181101561169757611684838551611622565b9284019260809290920191600101611671565b50909695505050505050565b600080600080606085870312156116b957600080fd5b6116c285611238565b935060208501356001600160401b03808211156116de57600080fd5b6116ea8883890161143c565b9450604087013591508082111561170057600080fd5b5061170d8782880161113c565b95989497509550505050565b608081016105248284611622565b801515811461094357600080fd5b6000806000806080858703121561174b57600080fd5b61175485611238565b935060208501356001600160401b038082111561177057600080fd5b61177c8883890161143c565b9450604087013591508082111561179257600080fd5b508501601f810187136117a457600080fd5b6117b3878235602084016113e5565b925050606085013561133981611727565b815181526020808301519082015260408101610524565b6000606082840312156117ed57600080fd5b6105218383611124565b600181811c9082168061180b57607f821691505b60208210810361113657634e487b7160e01b600052602260045260246000fd5b634e487b7160e01b600052601160045260246000fd5b6001600160401b038181168382160190808211156118615761186161182b565b5092915050565b634e487b7160e01b600052603260045260246000fd5b808201808211156105245761052461182b565b6000808335601e198436030181126118a857600080fd5b8301803591506001600160401b038211156118c257600080fd5b60200191503681900382131561117d57600080fd5b6001600160401b038116811461094357600080fd5b6000602082840312156118fe57600080fd5b8135611051816118d7565b60006020828403121561191b57600080fd5b81356001600160401b0381111561193157600080fd5b61193d8482850161143c565b949350505050565b601f821115610e34576000816000526020600020601f850160051c8101602086101561196e5750805b601f850160051c820191505b8181101561198d5782815560010161197a565b505050505050565b81516001600160401b038111156119ae576119ae61137c565b6119c2816119bc84546117f7565b84611945565b602080601f8311600181146119f757600084156119df5750858301515b600019600386901b1c1916600185901b17855561198d565b600085815260208120601f198616915b82811015611a2657888601518255948401946001909101908401611a07565b5085821015611a445787850151600019600388901b60f8161c191681555b5050505050600190811b01905550565b81835281816020850137506000828201602090810191909152601f909101601f19169091010190565b604081526000808554611a8f816117f7565b8060408601526060600180841660008114611ab15760018114611acd57611aff565b60ff1985166060890152606084151560051b8901019550611aff565b8a60005260208060002060005b86811015611af55781548b8201870152908401908201611ada565b8a01606001975050505b505050505082810360208401526108fe818587611a54565b6040815263ffffffff8351166040820152602083015160608201526000604084015160a06080840152611b4d60e084018261129f565b90506060850151603f198483030160a0850152611b6a828261129f565b60809690960151151560c08501525050506001600160a01b039190911660209091015290565b600060408284031215611ba257600080fd5b604051604081018181106001600160401b0382111715611bc457611bc461137c565b604052825181526020928301519281019290925250919050565b600060808284031215611bf057600080fd5b604051606081018181106001600160401b0382111715611c1257611c1261137c565b604052825181526020830151611c27816118d7565b6020820152611c398460408501611b90565b60408201529392505050565b600060408284031215611c5757600080fd5b6105218383611b90565b600060208284031215611c7357600080fd5b815161105181611184565b600060208284031215611c9057600080fd5b815161105181611727565b60008251611cad81846020870161127b565b919091019291505056fea26469706673582212204a9d6b31fda6c4ba75d415c0c5e2408c126e416bb9481f1a8020e8c031b9ae4764736f6c63430008160033",
  "devdoc": {
    "errors": {
      "AddressEmptyCode(address)": [
        {
          "details": "There's no code at `target` (it is not a contract)."
        }
      ],
      "AddressInsufficientBalance(address)": [
        {
          "details": "The ETH balance of the account is not enough to perform the operation."
        }
      ],
      "FailedInnerCall()": [
        {
          "details": "A call to an address target failed. The target may have reverted."
        }
      ],
      "OwnableInvalidOwner(address)": [
        {
          "details": "The owner is not a valid owner account. (eg. `address(0)`)"
        }
      ],
      "OwnableUnauthorizedAccount(address)": [
        {
          "details": "The caller account is not authorized to perform an operation."
        }
      ],
      "SafeERC20FailedOperation(address)": [
        {
          "details": "An operation with an ERC20 token failed."
        }
      ]
    },
    "kind": "dev",
    "methods": {
      "allowInitializePath((uint32,bytes32,uint64))": {
        "details": "This indicates to the endpoint that the OApp has enabled msgs for this particular path to be received.This defaults to assuming if a peer has been set, its initialized. Can be overridden by the OApp if there is other logic to determine this.",
        "params": {
          "origin": "The origin information containing the source endpoint and sender address."
        },
        "returns": {
          "_0": "Whether the path has been initialized."
        }
      },
      "isComposeMsgSender((uint32,bytes32,uint64),bytes,address)": {
        "details": "_origin The origin information containing the source endpoint and sender address.  - srcEid: The source chain endpoint ID.  - sender: The sender address on the src chain.  - nonce: The nonce of the message._message The lzReceive payload.Applications can optionally choose to implement separate composeMsg senders that are NOT the bridging layer.The default sender IS the OAppReceiver implementer.",
        "params": {
          "_sender": "The sender address."
        },
        "returns": {
          "_0": "isSender Is a valid sender."
        }
      },
      "lzReceive((uint32,bytes32,uint64),bytes32,bytes,address,bytes)": {
        "details": "Entry point for receiving messages or packets from the endpoint.Entry point for receiving msg/packet from the LayerZero endpoint.",
        "params": {
          "_executor": "The address of the executor for the received message.",
          "_extraData": "Additional arbitrary data provided by the corresponding executor.",
          "_guid": "The unique identifier for the received LayerZero message.",
          "_message": "The payload of the received message.",
          "_origin": "The origin information containing the source endpoint and sender address.  - srcEid: The source chain endpoint ID.  - sender: The sender address on the src chain.  - nonce: The nonce of the message."
        }
      },
      "nextNonce(uint32,bytes32)": {
        "details": "Public function to get the next expected nonce for a given source endpoint and sender.",
        "params": {
          "_sender": "Sender's address in bytes32 format.",
          "_srcEid": "Source endpoint ID."
        },
        "returns": {
          "_0": "uint64 Next expected nonce."
        }
      },
      "oAppVersion()": {
        "returns": {
          "receiverVersion": "The version of the OAppReceiver.sol implementation.",
          "senderVersion": "The version of the OAppSender.sol implementation."
        }
      },
      "owner()": {
        "details": "Returns the address of the current owner."
      },
      "quote(uint32,string,bytes,bool)": {
        "params": {
          "_dstEid": "Destination chain's endpoint ID.",
          "_message": "The message.",
          "_options": "Message execution options (e.g., for sending gas to destination).",
          "_payInLzToken": "Whether to return fee in ZRO token."
        },
        "returns": {
          "fee": "A `MessagingFee` struct containing the calculated gas fee in either the native token or ZRO token."
        }
      },
      "renounceOwnership()": {
        "details": "Leaves the contract without owner. It will not be possible to call `onlyOwner` functions. Can only be called by the current owner. NOTE: Renouncing ownership will leave the contract without an owner, thereby disabling any functionality that is only available to the owner."
      },
      "send(uint32,string,bytes)": {
        "details": "Encodes the message as bytes and sends it using the `_lzSend` internal function.",
        "params": {
          "_dstEid": "The endpoint ID of the destination chain.",
          "_message": "The message string to be sent.",
          "_options": "Additional options for message execution."
        },
        "returns": {
          "receipt": "A `MessagingReceipt` struct containing details of the message sent."
        }
      },
      "setDelegate(address)": {
        "details": "Only the owner/admin of the OApp can call this function.Provides the ability for a delegate to set configs, on behalf of the OApp, directly on the Endpoint contract.",
        "params": {
          "_delegate": "The address of the delegate to be set."
        }
      },
      "setPeer(uint32,bytes32)": {
        "details": "Only the owner/admin of the OApp can call this function.Indicates that the peer is trusted to send LayerZero messages to this OApp.Set this to bytes32(0) to remove the peer address.Peer is a bytes32 to accommodate non-evm chains.",
        "params": {
          "_eid": "The endpoint ID.",
          "_peer": "The address of the peer to be associated with the corresponding endpoint."
        }
      },
      "transferOwnership(address)": {
        "details": "Transfers ownership of the contract to a new account (`newOwner`). Can only be called by the current owner."
      }
    },
    "version": 1
  },
  "userdoc": {
    "kind": "user",
    "methods": {
      "allowInitializePath((uint32,bytes32,uint64))": {
        "notice": "Checks if the path initialization is allowed based on the provided origin."
      },
      "endpoint()": {
        "notice": "Retrieves the LayerZero endpoint associated with the OApp."
      },
      "isComposeMsgSender((uint32,bytes32,uint64),bytes,address)": {
        "notice": "Indicates whether an address is an approved composeMsg sender to the Endpoint."
      },
      "oAppVersion()": {
        "notice": "Retrieves the OApp version information."
      },
      "peers(uint32)": {
        "notice": "Retrieves the peer (OApp) associated with a corresponding endpoint."
      },
      "quote(uint32,string,bytes,bool)": {
        "notice": "Quotes the gas needed to pay for the full omnichain transaction in native gas or ZRO token."
      },
      "send(uint32,string,bytes)": {
        "notice": "Sends a message from the source chain to a destination chain."
      },
      "setDelegate(address)": {
        "notice": "Sets the delegate address for the OApp."
      },
      "setPeer(uint32,bytes32)": {
        "notice": "Sets the peer address (OApp instance) for a corresponding endpoint."
      }
    },
    "version": 1
  },
  "storageLayout": {
    "storage": [
      {
        "astId": 1327,
        "contract": "contracts/MyOrderedOApp.sol:MyOrderedOApp",
        "label": "_owner",
        "offset": 0,
        "slot": "0",
        "type": "t_address"
      },
      {
        "astId": 64,
        "contract": "contracts/MyOrderedOApp.sol:MyOrderedOApp",
        "label": "peers",
        "offset": 0,
        "slot": "1",
        "type": "t_mapping(t_uint32,t_bytes32)"
      },
      {
        "astId": 2302,
        "contract": "contracts/MyOrderedOApp.sol:MyOrderedOApp",
        "label": "receivedNonce",
        "offset": 0,
        "slot": "2",
        "type": "t_mapping(t_uint32,t_mapping(t_bytes32,t_uint64))"
      },
      {
        "astId": 2320,
        "contract": "contracts/MyOrderedOApp.sol:MyOrderedOApp",
        "label": "data",
        "offset": 0,
        "slot": "3",
        "type": "t_string_storage"
      }
    ],
    "types": {
      "t_address": {
        "encoding": "inplace",
        "label": "address",
        "numberOfBytes": "20"
      },
      "t_bytes32": {
        "encoding": "inplace",
        "label": "bytes32",
        "numberOfBytes": "32"
      },
      "t_mapping(t_bytes32,t_uint64)": {
        "encoding": "mapping",
        "key": "t_bytes32",
        "label": "mapping(bytes32 => uint64)",
        "numberOfBytes": "32",
        "value": "t_uint64"
      },
      "t_mapping(t_uint32,t_bytes32)": {
        "encoding": "mapping",
        "key": "t_uint32",
        "label": "mapping(uint32 => bytes32)",
        "numberOfBytes": "32",
        "value": "t_bytes32"
      },
      "t_mapping(t_uint32,t_mapping(t_bytes32,t_uint64))": {
        "encoding": "mapping",
        "key": "t_uint32",
        "label": "mapping(uint32 => mapping(bytes32 => uint64))",
        "numberOfBytes": "32",
        "value": "t_mapping(t_bytes32,t_uint64)"
      },
      "t_string_storage": {
        "encoding": "bytes",
        "label": "string",
        "numberOfBytes": "32"
      },
      "t_uint32": {
        "encoding": "inplace",
        "label": "uint32",
        "numberOfBytes": "4"
      },
      "t_uint64": {
        "encoding": "inplace",
        "label": "uint64",
        "numberOfBytes": "8"
      }
    }
  }
}